{
  "contractName": "MasterChef",
  "abi": [
    {
      "inputs": [
        {
          "internalType": "contract RAToken",
          "name": "_ra",
          "type": "address"
        },
        {
          "internalType": "address",
          "name": "_devaddr",
          "type": "address"
        },
        {
          "internalType": "address",
          "name": "_feeAddress",
          "type": "address"
        },
        {
          "internalType": "uint256",
          "name": "_raPerBlock",
          "type": "uint256"
        },
        {
          "internalType": "uint256",
          "name": "_startBlock",
          "type": "uint256"
        }
      ],
      "stateMutability": "nonpayable",
      "type": "constructor"
    },
    {
      "anonymous": false,
      "inputs": [
        {
          "indexed": true,
          "internalType": "address",
          "name": "user",
          "type": "address"
        },
        {
          "indexed": true,
          "internalType": "uint256",
          "name": "pid",
          "type": "uint256"
        },
        {
          "indexed": false,
          "internalType": "uint256",
          "name": "amount",
          "type": "uint256"
        }
      ],
      "name": "Deposit",
      "type": "event"
    },
    {
      "anonymous": false,
      "inputs": [
        {
          "indexed": true,
          "internalType": "address",
          "name": "user",
          "type": "address"
        },
        {
          "indexed": true,
          "internalType": "uint256",
          "name": "pid",
          "type": "uint256"
        },
        {
          "indexed": false,
          "internalType": "uint256",
          "name": "amount",
          "type": "uint256"
        }
      ],
      "name": "EmergencyWithdraw",
      "type": "event"
    },
    {
      "anonymous": false,
      "inputs": [
        {
          "indexed": true,
          "internalType": "address",
          "name": "previousOwner",
          "type": "address"
        },
        {
          "indexed": true,
          "internalType": "address",
          "name": "newOwner",
          "type": "address"
        }
      ],
      "name": "OwnershipTransferred",
      "type": "event"
    },
    {
      "anonymous": false,
      "inputs": [
        {
          "indexed": true,
          "internalType": "address",
          "name": "user",
          "type": "address"
        },
        {
          "indexed": true,
          "internalType": "uint256",
          "name": "pid",
          "type": "uint256"
        },
        {
          "indexed": false,
          "internalType": "uint256",
          "name": "amount",
          "type": "uint256"
        }
      ],
      "name": "Withdraw",
      "type": "event"
    },
    {
      "inputs": [],
      "name": "BONUS_MULTIPLIER",
      "outputs": [
        {
          "internalType": "uint256",
          "name": "",
          "type": "uint256"
        }
      ],
      "stateMutability": "view",
      "type": "function",
      "constant": true
    },
    {
      "inputs": [],
      "name": "devaddr",
      "outputs": [
        {
          "internalType": "address",
          "name": "",
          "type": "address"
        }
      ],
      "stateMutability": "view",
      "type": "function",
      "constant": true
    },
    {
      "inputs": [],
      "name": "feeAddress",
      "outputs": [
        {
          "internalType": "address",
          "name": "",
          "type": "address"
        }
      ],
      "stateMutability": "view",
      "type": "function",
      "constant": true
    },
    {
      "inputs": [],
      "name": "owner",
      "outputs": [
        {
          "internalType": "address",
          "name": "",
          "type": "address"
        }
      ],
      "stateMutability": "view",
      "type": "function",
      "constant": true
    },
    {
      "inputs": [
        {
          "internalType": "uint256",
          "name": "",
          "type": "uint256"
        }
      ],
      "name": "poolInfo",
      "outputs": [
        {
          "internalType": "contract IBEP20",
          "name": "lpToken",
          "type": "address"
        },
        {
          "internalType": "uint256",
          "name": "allocPoint",
          "type": "uint256"
        },
        {
          "internalType": "uint256",
          "name": "lastRewardBlock",
          "type": "uint256"
        },
        {
          "internalType": "uint256",
          "name": "accRAPerShare",
          "type": "uint256"
        },
        {
          "internalType": "uint16",
          "name": "depositFeeBP",
          "type": "uint16"
        }
      ],
      "stateMutability": "view",
      "type": "function",
      "constant": true
    },
    {
      "inputs": [],
      "name": "ra",
      "outputs": [
        {
          "internalType": "contract RAToken",
          "name": "",
          "type": "address"
        }
      ],
      "stateMutability": "view",
      "type": "function",
      "constant": true
    },
    {
      "inputs": [],
      "name": "raPerBlock",
      "outputs": [
        {
          "internalType": "uint256",
          "name": "",
          "type": "uint256"
        }
      ],
      "stateMutability": "view",
      "type": "function",
      "constant": true
    },
    {
      "inputs": [],
      "name": "renounceOwnership",
      "outputs": [],
      "stateMutability": "nonpayable",
      "type": "function"
    },
    {
      "inputs": [],
      "name": "startBlock",
      "outputs": [
        {
          "internalType": "uint256",
          "name": "",
          "type": "uint256"
        }
      ],
      "stateMutability": "view",
      "type": "function",
      "constant": true
    },
    {
      "inputs": [],
      "name": "totalAllocPoint",
      "outputs": [
        {
          "internalType": "uint256",
          "name": "",
          "type": "uint256"
        }
      ],
      "stateMutability": "view",
      "type": "function",
      "constant": true
    },
    {
      "inputs": [
        {
          "internalType": "address",
          "name": "newOwner",
          "type": "address"
        }
      ],
      "name": "transferOwnership",
      "outputs": [],
      "stateMutability": "nonpayable",
      "type": "function"
    },
    {
      "inputs": [
        {
          "internalType": "uint256",
          "name": "",
          "type": "uint256"
        },
        {
          "internalType": "address",
          "name": "",
          "type": "address"
        }
      ],
      "name": "userInfo",
      "outputs": [
        {
          "internalType": "uint256",
          "name": "amount",
          "type": "uint256"
        },
        {
          "internalType": "uint256",
          "name": "rewardDebt",
          "type": "uint256"
        }
      ],
      "stateMutability": "view",
      "type": "function",
      "constant": true
    },
    {
      "inputs": [],
      "name": "poolLength",
      "outputs": [
        {
          "internalType": "uint256",
          "name": "",
          "type": "uint256"
        }
      ],
      "stateMutability": "view",
      "type": "function",
      "constant": true
    },
    {
      "inputs": [
        {
          "internalType": "uint256",
          "name": "_allocPoint",
          "type": "uint256"
        },
        {
          "internalType": "contract IBEP20",
          "name": "_lpToken",
          "type": "address"
        },
        {
          "internalType": "uint16",
          "name": "_depositFeeBP",
          "type": "uint16"
        },
        {
          "internalType": "bool",
          "name": "_withUpdate",
          "type": "bool"
        }
      ],
      "name": "add",
      "outputs": [],
      "stateMutability": "nonpayable",
      "type": "function"
    },
    {
      "inputs": [
        {
          "internalType": "uint256",
          "name": "_pid",
          "type": "uint256"
        },
        {
          "internalType": "uint256",
          "name": "_allocPoint",
          "type": "uint256"
        },
        {
          "internalType": "uint16",
          "name": "_depositFeeBP",
          "type": "uint16"
        },
        {
          "internalType": "bool",
          "name": "_withUpdate",
          "type": "bool"
        }
      ],
      "name": "set",
      "outputs": [],
      "stateMutability": "nonpayable",
      "type": "function"
    },
    {
      "inputs": [
        {
          "internalType": "uint256",
          "name": "_from",
          "type": "uint256"
        },
        {
          "internalType": "uint256",
          "name": "_to",
          "type": "uint256"
        }
      ],
      "name": "getMultiplier",
      "outputs": [
        {
          "internalType": "uint256",
          "name": "",
          "type": "uint256"
        }
      ],
      "stateMutability": "view",
      "type": "function",
      "constant": true
    },
    {
      "inputs": [
        {
          "internalType": "uint256",
          "name": "_pid",
          "type": "uint256"
        },
        {
          "internalType": "address",
          "name": "_user",
          "type": "address"
        }
      ],
      "name": "pendingRA",
      "outputs": [
        {
          "internalType": "uint256",
          "name": "",
          "type": "uint256"
        }
      ],
      "stateMutability": "view",
      "type": "function",
      "constant": true
    },
    {
      "inputs": [],
      "name": "massUpdatePools",
      "outputs": [],
      "stateMutability": "nonpayable",
      "type": "function"
    },
    {
      "inputs": [
        {
          "internalType": "uint256",
          "name": "_pid",
          "type": "uint256"
        }
      ],
      "name": "updatePool",
      "outputs": [],
      "stateMutability": "nonpayable",
      "type": "function"
    },
    {
      "inputs": [
        {
          "internalType": "uint256",
          "name": "_pid",
          "type": "uint256"
        },
        {
          "internalType": "uint256",
          "name": "_amount",
          "type": "uint256"
        }
      ],
      "name": "deposit",
      "outputs": [],
      "stateMutability": "nonpayable",
      "type": "function"
    },
    {
      "inputs": [
        {
          "internalType": "uint256",
          "name": "_pid",
          "type": "uint256"
        },
        {
          "internalType": "uint256",
          "name": "_amount",
          "type": "uint256"
        }
      ],
      "name": "withdraw",
      "outputs": [],
      "stateMutability": "nonpayable",
      "type": "function"
    },
    {
      "inputs": [
        {
          "internalType": "uint256",
          "name": "_pid",
          "type": "uint256"
        }
      ],
      "name": "emergencyWithdraw",
      "outputs": [],
      "stateMutability": "nonpayable",
      "type": "function"
    },
    {
      "inputs": [
        {
          "internalType": "address",
          "name": "_devaddr",
          "type": "address"
        }
      ],
      "name": "dev",
      "outputs": [],
      "stateMutability": "nonpayable",
      "type": "function"
    },
    {
      "inputs": [
        {
          "internalType": "address",
          "name": "_feeAddress",
          "type": "address"
        }
      ],
      "name": "setFeeAddress",
      "outputs": [],
      "stateMutability": "nonpayable",
      "type": "function"
    },
    {
      "inputs": [
        {
          "internalType": "uint256",
          "name": "_raPerBlock",
          "type": "uint256"
        }
      ],
      "name": "updateEmissionRate",
      "outputs": [],
      "stateMutability": "nonpayable",
      "type": "function"
    }
  ],
  "bytecode": "0x6080604052600060075534801561001557600080fd5b50604051611ce7380380611ce7833981810160405260a081101561003857600080fd5b5080516020820151604083015160608401516080909401519293919290919060006100616100f7565b600080546001600160a01b0319166001600160a01b0383169081178255604051929350917f8be0079c531659141344cd1fd0a4f28419497f9722a3daafe3b4186f6b6457e0908290a350600180546001600160a01b03199081166001600160a01b0397881617909155600280548216958716959095179094556004805490941692909416919091179091556003556008556100fb565b3390565b611bdd8061010a6000396000f3fe608060405234801561001057600080fd5b50600436106101a35760003560e01c806384e82a33116100ee57806393f1a40b11610097578063d49e77cd11610071578063d49e77cd14610416578063d96384221461041e578063e2bbb15814610453578063f2fde38b14610476576101a3565b806393f1a40b1461039d5780639eacf3cc146103e2578063ccf0e6f0146103ea576101a3565b80638d88a90e116100c85780638d88a90e1461034c5780638da5cb5b146103725780638dbb1e3a1461037a576101a3565b806384e82a33146102e05780638705fcd41461031e5780638aa2855014610344576101a3565b8063441a3e70116101505780635312ea8e1161012a5780635312ea8e146102b3578063630b5ba1146102d0578063715018a6146102d8576101a3565b8063441a3e701461026b57806348cd4cb11461028e57806351eb05a614610296576101a3565b806317caf6f11161018157806317caf6f1146102375780632ee8a4a91461023f5780634127535814610263576101a3565b8063081e3eda146101a85780630ba84cd2146101c25780631526fe27146101e1575b600080fd5b6101b061049c565b60408051918252519081900360200190f35b6101df600480360360208110156101d857600080fd5b50356104a2565b005b6101fe600480360360208110156101f757600080fd5b5035610519565b604080516001600160a01b039096168652602086019490945284840192909252606084015261ffff166080830152519081900360a00190f35b6101b0610565565b61024761056b565b604080516001600160a01b039092168252519081900360200190f35b61024761057a565b6101df6004803603604081101561028157600080fd5b5080359060200135610589565b6101b06106f3565b6101df600480360360208110156102ac57600080fd5b50356106f9565b6101df600480360360208110156102c957600080fd5b5035610948565b6101df6109e4565b6101df610a07565b6101df600480360360808110156102f657600080fd5b508035906001600160a01b036020820135169061ffff60408201351690606001351515610ac8565b6101df6004803603602081101561033457600080fd5b50356001600160a01b0316610cef565b6101b0610d7d565b6101df6004803603602081101561036257600080fd5b50356001600160a01b0316610d82565b610247610e10565b6101b06004803603604081101561039057600080fd5b5080359060200135610e1f565b6103c9600480360360408110156103b357600080fd5b50803590602001356001600160a01b0316610e39565b6040805192835260208301919091528051918290030190f35b6101b0610e5d565b6101b06004803603604081101561040057600080fd5b50803590602001356001600160a01b0316610e63565b610247610fc1565b6101df6004803603608081101561043457600080fd5b5080359060208101359061ffff60408201351690606001351515610fd0565b6101df6004803603604081101561046957600080fd5b5080359060200135611132565b6101df6004803603602081101561048c57600080fd5b50356001600160a01b03166112aa565b60055490565b6104aa6113c1565b6000546001600160a01b0390811691161461050c576040805162461bcd60e51b815260206004820181905260248201527f4f776e61626c653a2063616c6c6572206973206e6f7420746865206f776e6572604482015290519081900360640190fd5b6105146109e4565b600355565b6005818154811061052657fe5b6000918252602090912060059091020180546001820154600283015460038401546004909401546001600160a01b0390931694509092909161ffff1685565b60075481565b6001546001600160a01b031681565b6004546001600160a01b031681565b60006005838154811061059857fe5b600091825260208083208684526006825260408085203386529092529220805460059092029092019250831115610616576040805162461bcd60e51b815260206004820152601260248201527f77697468647261773a206e6f7420676f6f640000000000000000000000000000604482015290519081900360640190fd5b61061f846106f9565b6000610659826001015461065364e8d4a5100061064d876003015487600001546113c590919063ffffffff16565b9061141e565b90611460565b9050801561066b5761066b33826114a2565b831561069557815461067d9085611460565b82558254610695906001600160a01b03163386611633565b600383015482546106b09164e8d4a510009161064d916113c5565b6001830155604080518581529051869133917ff279e6a1f5e320cca91135676d9cb6e44ca8a08c0b88342bcdb1144f6511b5689181900360200190a35050505050565b60085481565b60006005828154811061070857fe5b90600052602060002090600502019050806002015443116107295750610945565b8054604080516370a0823160e01b815230600482015290516000926001600160a01b0316916370a08231916024808301926020929190829003018186803b15801561077357600080fd5b505afa158015610787573d6000803e3d6000fd5b505050506040513d602081101561079d57600080fd5b505190508015806107b057506001820154155b156107c2575043600290910155610945565b60006107d2836002015443610e1f565b905060006107ff60075461064d86600101546107f9600354876113c590919063ffffffff16565b906113c5565b6001546002549192506001600160a01b03908116916340c10f19911661082684600a61141e565b6040518363ffffffff1660e01b815260040180836001600160a01b0316815260200182815260200192505050600060405180830381600087803b15801561086c57600080fd5b505af1158015610880573d6000803e3d6000fd5b5050600154604080517f40c10f190000000000000000000000000000000000000000000000000000000081523060048201526024810186905290516001600160a01b0390921693506340c10f19925060448082019260009290919082900301818387803b1580156108f057600080fd5b505af1158015610904573d6000803e3d6000fd5b505050506109326109278461064d64e8d4a51000856113c590919063ffffffff16565b60038601549061169a565b6003850155505043600290920191909155505b50565b60006005828154811061095757fe5b6000918252602080832085845260068252604080852033808752935284208054858255600182019590955560059093020180549094509192916109a7916001600160a01b03919091169083611633565b604080518281529051859133917fbb757047c2b5f3974fe26b7c10f732e7bce710b0952a71082702781e62ae05959181900360200190a350505050565b60055460005b81811015610a03576109fb816106f9565b6001016109ea565b5050565b610a0f6113c1565b6000546001600160a01b03908116911614610a71576040805162461bcd60e51b815260206004820181905260248201527f4f776e61626c653a2063616c6c6572206973206e6f7420746865206f776e6572604482015290519081900360640190fd5b600080546040516001600160a01b03909116907f8be0079c531659141344cd1fd0a4f28419497f9722a3daafe3b4186f6b6457e0908390a36000805473ffffffffffffffffffffffffffffffffffffffff19169055565b610ad06113c1565b6000546001600160a01b03908116911614610b32576040805162461bcd60e51b815260206004820181905260248201527f4f776e61626c653a2063616c6c6572206973206e6f7420746865206f776e6572604482015290519081900360640190fd5b6127108261ffff161115610b775760405162461bcd60e51b8152600401808060200182810382526025815260200180611aed6025913960400191505060405180910390fd5b8015610b8557610b856109e4565b60006008544311610b9857600854610b9a565b435b600754909150610baa908661169a565b6007556040805160a0810182526001600160a01b0395861681526020810196875290810191825260006060820181815261ffff95861660808401908152600580546001810182559381905293517f036b6384b5eca791c62761152d0c79bb0604c104a5fb6f4eb0703f3154bb3db093909402928301805473ffffffffffffffffffffffffffffffffffffffff1916949098169390931790965595517f036b6384b5eca791c62761152d0c79bb0604c104a5fb6f4eb0703f3154bb3db187015590517f036b6384b5eca791c62761152d0c79bb0604c104a5fb6f4eb0703f3154bb3db286015592517f036b6384b5eca791c62761152d0c79bb0604c104a5fb6f4eb0703f3154bb3db38501555090517f036b6384b5eca791c62761152d0c79bb0604c104a5fb6f4eb0703f3154bb3db4909201805461ffff191692909116919091179055565b6004546001600160a01b03163314610d4e576040805162461bcd60e51b815260206004820152601860248201527f736574466565416464726573733a20464f5242494444454e0000000000000000604482015290519081900360640190fd5b6004805473ffffffffffffffffffffffffffffffffffffffff19166001600160a01b0392909216919091179055565b600181565b6002546001600160a01b03163314610de1576040805162461bcd60e51b815260206004820152600960248201527f6465763a207775743f0000000000000000000000000000000000000000000000604482015290519081900360640190fd5b6002805473ffffffffffffffffffffffffffffffffffffffff19166001600160a01b0392909216919091179055565b6000546001600160a01b031690565b6000610e3060016107f98486611460565b90505b92915050565b60066020908152600092835260408084209091529082529020805460019091015482565b60035481565b60008060058481548110610e7357fe5b600091825260208083208784526006825260408085206001600160a01b0389811687529084528186206005959095029092016003810154815483516370a0823160e01b815230600482015293519298509596909590949316926370a082319260248082019391829003018186803b158015610eed57600080fd5b505afa158015610f01573d6000803e3d6000fd5b505050506040513d6020811015610f1757600080fd5b5051600285015490915043118015610f2e57508015155b15610f8e576000610f43856002015443610e1f565b90506000610f6a60075461064d88600101546107f9600354876113c590919063ffffffff16565b9050610f89610f828461064d8464e8d4a510006113c5565b859061169a565b935050505b610fb6836001015461065364e8d4a5100061064d8688600001546113c590919063ffffffff16565b979650505050505050565b6002546001600160a01b031681565b610fd86113c1565b6000546001600160a01b0390811691161461103a576040805162461bcd60e51b815260206004820181905260248201527f4f776e61626c653a2063616c6c6572206973206e6f7420746865206f776e6572604482015290519081900360640190fd5b6127108261ffff16111561107f5760405162461bcd60e51b8152600401808060200182810382526025815260200180611b836025913960400191505060405180910390fd5b801561108d5761108d6109e4565b6110ca836110c4600587815481106110a157fe5b90600052602060002090600502016001015460075461146090919063ffffffff16565b9061169a565b60078190555082600585815481106110de57fe5b906000526020600020906005020160010181905550816005858154811061110157fe5b906000526020600020906005020160040160006101000a81548161ffff021916908361ffff16021790555050505050565b60006005838154811061114157fe5b60009182526020808320868452600682526040808520338652909252922060059091029091019150611172846106f9565b8054156111bb5760006111a7826001015461065364e8d4a5100061064d876003015487600001546113c590919063ffffffff16565b905080156111b9576111b933826114a2565b505b821561124d5781546111d8906001600160a01b03163330866116f4565b600482015461ffff161561123e576004820154600090611205906127109061064d90879061ffff166113c5565b6004548454919250611224916001600160a01b03908116911683611633565b8154611236908290610653908761169a565b82555061124d565b805461124a908461169a565b81555b600382015481546112689164e8d4a510009161064d916113c5565b6001820155604080518481529051859133917f90890809c654f11d6e72a28fa60149770a0d11ec6c92319d6ceb2bb0a4ea1a159181900360200190a350505050565b6112b26113c1565b6000546001600160a01b03908116911614611314576040805162461bcd60e51b815260206004820181905260248201527f4f776e61626c653a2063616c6c6572206973206e6f7420746865206f776e6572604482015290519081900360640190fd5b6001600160a01b0381166113595760405162461bcd60e51b8152600401808060200182810382526026815260200180611b3c6026913960400191505060405180910390fd5b600080546040516001600160a01b03808516939216917f8be0079c531659141344cd1fd0a4f28419497f9722a3daafe3b4186f6b6457e091a36000805473ffffffffffffffffffffffffffffffffffffffff19166001600160a01b0392909216919091179055565b3390565b6000826113d457506000610e33565b828202828482816113e157fe5b0414610e305760405162461bcd60e51b8152600401808060200182810382526021815260200180611b626021913960400191505060405180910390fd5b6000610e3083836040518060400160405280601a81526020017f536166654d6174683a206469766973696f6e206279207a65726f000000000000815250611782565b6000610e3083836040518060400160405280601e81526020017f536166654d6174683a207375627472616374696f6e206f766572666c6f770000815250611824565b600154604080516370a0823160e01b815230600482015290516000926001600160a01b0316916370a08231916024808301926020929190829003018186803b1580156114ed57600080fd5b505afa158015611501573d6000803e3d6000fd5b505050506040513d602081101561151757600080fd5b50519050808211156115ab576001546040805163a9059cbb60e01b81526001600160a01b038681166004830152602482018590529151919092169163a9059cbb9160448083019260209291908290030181600087803b15801561157957600080fd5b505af115801561158d573d6000803e3d6000fd5b505050506040513d60208110156115a357600080fd5b5061162e9050565b6001546040805163a9059cbb60e01b81526001600160a01b038681166004830152602482018690529151919092169163a9059cbb9160448083019260209291908290030181600087803b15801561160157600080fd5b505af1158015611615573d6000803e3d6000fd5b505050506040513d602081101561162b57600080fd5b50505b505050565b604080516001600160a01b038416602482015260448082018490528251808303909101815260649091019091526020810180517bffffffffffffffffffffffffffffffffffffffffffffffffffffffff1663a9059cbb60e01b17905261162e90849061187e565b600082820183811015610e30576040805162461bcd60e51b815260206004820152601b60248201527f536166654d6174683a206164646974696f6e206f766572666c6f770000000000604482015290519081900360640190fd5b604080516001600160a01b0380861660248301528416604482015260648082018490528251808303909101815260849091019091526020810180517bffffffffffffffffffffffffffffffffffffffffffffffffffffffff167f23b872dd0000000000000000000000000000000000000000000000000000000017905261177c90859061187e565b50505050565b6000818361180e5760405162461bcd60e51b81526004018080602001828103825283818151815260200191508051906020019080838360005b838110156117d35781810151838201526020016117bb565b50505050905090810190601f1680156118005780820380516001836020036101000a031916815260200191505b509250505060405180910390fd5b50600083858161181a57fe5b0495945050505050565b600081848411156118765760405162461bcd60e51b81526020600482018181528351602484015283519092839260449091019190850190808383600083156117d35781810151838201526020016117bb565b505050900390565b60606118d3826040518060400160405280602081526020017f5361666542455032303a206c6f772d6c6576656c2063616c6c206661696c6564815250856001600160a01b031661192f9092919063ffffffff16565b80519091501561162e578080602001905160208110156118f257600080fd5b505161162e5760405162461bcd60e51b815260040180806020018281038252602a815260200180611b12602a913960400191505060405180910390fd5b606061193e8484600085611946565b949350505050565b606061195185611ab3565b6119a2576040805162461bcd60e51b815260206004820152601d60248201527f416464726573733a2063616c6c20746f206e6f6e2d636f6e7472616374000000604482015290519081900360640190fd5b60006060866001600160a01b031685876040518082805190602001908083835b602083106119e15780518252601f1990920191602091820191016119c2565b6001836020036101000a03801982511681845116808217855250505050505090500191505060006040518083038185875af1925050503d8060008114611a43576040519150601f19603f3d011682016040523d82523d6000602084013e611a48565b606091505b50915091508115611a5c57915061193e9050565b805115611a6c5780518082602001fd5b60405162461bcd60e51b81526020600482018181528651602484015286518793919283926044019190850190808383600083156117d35781810151838201526020016117bb565b6000813f7fc5d2460186f7233c927e7db2dcc703c0e500b653ca82273b7bfad8045d85a47081811480159061193e57505015159291505056fe6164643a20696e76616c6964206465706f7369742066656520626173697320706f696e74735361666542455032303a204245503230206f7065726174696f6e20646964206e6f7420737563636565644f776e61626c653a206e6577206f776e657220697320746865207a65726f2061646472657373536166654d6174683a206d756c7469706c69636174696f6e206f766572666c6f777365743a20696e76616c6964206465706f7369742066656520626173697320706f696e7473a264697066735822122060b64b982d113c5fffe277bca0b5be266a126dd57524b1d978f3821446fc4d4a64736f6c634300060c0033",
  "immutableReferences": {},
  "source": "// SPDX-License-Identifier: MIT\n\npragma solidity ^0.6.12;\n\nimport \"@openzeppelin/contracts/math/SafeMath.sol\";\nimport \"./libs/IBEP20.sol\";\nimport \"./libs/SafeBEP20.sol\";\nimport \"@openzeppelin/contracts/access/Ownable.sol\";\n\nimport \"./RAToken.sol\";\n\n// MasterChef is the master of RA. He can make RA and he is a fair guy.\n//\n// Note that it's ownable and the owner wields tremendous power. The ownership\n// will be transferred to a governance smart contract once RA is sufficiently\n// distributed and the community can show to govern itself.\n//\n// Have fun reading it. Hopefully it's bug-free. God bless.\ncontract MasterChef is Ownable {\n    using SafeMath for uint256;\n    using SafeBEP20 for IBEP20;\n\n    // Info of each user.\n    struct UserInfo {\n        uint256 amount;         // How many LP tokens the user has provided.\n        uint256 rewardDebt;     // Reward debt. See explanation below.\n        //\n        // We do some fancy math here. Basically, any point in time, the amount of RAs\n        // entitled to a user but is pending to be distributed is:\n        //\n        //   pending reward = (user.amount * pool.accRAPerShare) - user.rewardDebt\n        //\n        // Whenever a user deposits or withdraws LP tokens to a pool. Here's what happens:\n        //   1. The pool's `accRAPerShare` (and `lastRewardBlock`) gets updated.\n        //   2. User receives the pending reward sent to his/her address.\n        //   3. User's `amount` gets updated.\n        //   4. User's `rewardDebt` gets updated.\n    }\n\n    // Info of each pool.\n    struct PoolInfo {\n        IBEP20 lpToken;           // Address of LP token contract.\n        uint256 allocPoint;       // How many allocation points assigned to this pool. RAs to distribute per block.\n        uint256 lastRewardBlock;  // Last block number that RAs distribution occurs.\n        uint256 accRAPerShare;   // Accumulated RAs per share, times 1e12. See below.\n        uint16 depositFeeBP;      // Deposit fee in basis points\n    }\n\n    // The RA TOKEN!\n    RAToken public ra;\n    // Dev address.\n    address public devaddr;\n    // RA tokens created per block.\n    uint256 public raPerBlock;\n    // Bonus muliplier for early ra makers.\n    uint256 public constant BONUS_MULTIPLIER = 1;\n    // Deposit Fee address\n    address public feeAddress;\n\n    // Info of each pool.\n    PoolInfo[] public poolInfo;\n    // Info of each user that stakes LP tokens.\n    mapping (uint256 => mapping (address => UserInfo)) public userInfo;\n    // Total allocation points. Must be the sum of all allocation points in all pools.\n    uint256 public totalAllocPoint = 0;\n    // The block number when RA mining starts.\n    uint256 public startBlock;\n\n    event Deposit(address indexed user, uint256 indexed pid, uint256 amount);\n    event Withdraw(address indexed user, uint256 indexed pid, uint256 amount);\n    event EmergencyWithdraw(address indexed user, uint256 indexed pid, uint256 amount);\n\n    constructor(\n        RAToken _ra,\n        address _devaddr,\n        address _feeAddress,\n        uint256 _raPerBlock,\n        uint256 _startBlock\n    ) public {\n        ra = _ra;\n        devaddr = _devaddr;\n        feeAddress = _feeAddress;\n        raPerBlock = _raPerBlock;\n        startBlock = _startBlock;\n    }\n\n    function poolLength() external view returns (uint256) {\n        return poolInfo.length;\n    }\n\n    // Add a new lp to the pool. Can only be called by the owner.\n    // XXX DO NOT add the same LP token more than once. Rewards will be messed up if you do.\n    function add(uint256 _allocPoint, IBEP20 _lpToken, uint16 _depositFeeBP, bool _withUpdate) public onlyOwner {\n        require(_depositFeeBP <= 10000, \"add: invalid deposit fee basis points\");\n        if (_withUpdate) {\n            massUpdatePools();\n        }\n        uint256 lastRewardBlock = block.number > startBlock ? block.number : startBlock;\n        totalAllocPoint = totalAllocPoint.add(_allocPoint);\n        poolInfo.push(PoolInfo({\n            lpToken: _lpToken,\n            allocPoint: _allocPoint,\n            lastRewardBlock: lastRewardBlock,\n            accRAPerShare: 0,\n            depositFeeBP: _depositFeeBP\n        }));\n    }\n\n    // Update the given pool's RA allocation point and deposit fee. Can only be called by the owner.\n    function set(uint256 _pid, uint256 _allocPoint, uint16 _depositFeeBP, bool _withUpdate) public onlyOwner {\n        require(_depositFeeBP <= 10000, \"set: invalid deposit fee basis points\");\n        if (_withUpdate) {\n            massUpdatePools();\n        }\n        totalAllocPoint = totalAllocPoint.sub(poolInfo[_pid].allocPoint).add(_allocPoint);\n        poolInfo[_pid].allocPoint = _allocPoint;\n        poolInfo[_pid].depositFeeBP = _depositFeeBP;\n    }\n\n    // Return reward multiplier over the given _from to _to block.\n    function getMultiplier(uint256 _from, uint256 _to) public view returns (uint256) {\n        return _to.sub(_from).mul(BONUS_MULTIPLIER);\n    }\n\n    // View function to see pending RAs on frontend.\n    function pendingRA(uint256 _pid, address _user) external view returns (uint256) {\n        PoolInfo storage pool = poolInfo[_pid];\n        UserInfo storage user = userInfo[_pid][_user];\n        uint256 accRAPerShare = pool.accRAPerShare;\n        uint256 lpSupply = pool.lpToken.balanceOf(address(this));\n        if (block.number > pool.lastRewardBlock && lpSupply != 0) {\n            uint256 multiplier = getMultiplier(pool.lastRewardBlock, block.number);\n            uint256 raReward = multiplier.mul(raPerBlock).mul(pool.allocPoint).div(totalAllocPoint);\n            accRAPerShare = accRAPerShare.add(raReward.mul(1e12).div(lpSupply));\n        }\n        return user.amount.mul(accRAPerShare).div(1e12).sub(user.rewardDebt);\n    }\n\n    // Update reward variables for all pools. Be careful of gas spending!\n    function massUpdatePools() public {\n        uint256 length = poolInfo.length;\n        for (uint256 pid = 0; pid < length; ++pid) {\n            updatePool(pid);\n        }\n    }\n\n    // Update reward variables of the given pool to be up-to-date.\n    function updatePool(uint256 _pid) public {\n        PoolInfo storage pool = poolInfo[_pid];\n        if (block.number <= pool.lastRewardBlock) {\n            return;\n        }\n        uint256 lpSupply = pool.lpToken.balanceOf(address(this));\n        if (lpSupply == 0 || pool.allocPoint == 0) {\n            pool.lastRewardBlock = block.number;\n            return;\n        }\n        uint256 multiplier = getMultiplier(pool.lastRewardBlock, block.number);\n        uint256 raReward = multiplier.mul(raPerBlock).mul(pool.allocPoint).div(totalAllocPoint);\n        ra.mint(devaddr, raReward.div(10));\n        ra.mint(address(this), raReward);\n        pool.accRAPerShare = pool.accRAPerShare.add(raReward.mul(1e12).div(lpSupply));\n        pool.lastRewardBlock = block.number;\n    }\n\n    // Deposit LP tokens to MasterChef for RA allocation.\n    function deposit(uint256 _pid, uint256 _amount) public {\n        PoolInfo storage pool = poolInfo[_pid];\n        UserInfo storage user = userInfo[_pid][msg.sender];\n        updatePool(_pid);\n        if (user.amount > 0) {\n            uint256 pending = user.amount.mul(pool.accRAPerShare).div(1e12).sub(user.rewardDebt);\n            if(pending > 0) {\n                safeRATransfer(msg.sender, pending);\n            }\n        }\n        if(_amount > 0) {\n            pool.lpToken.safeTransferFrom(address(msg.sender), address(this), _amount);\n            if(pool.depositFeeBP > 0){\n                uint256 depositFee = _amount.mul(pool.depositFeeBP).div(10000);\n                pool.lpToken.safeTransfer(feeAddress, depositFee);\n                user.amount = user.amount.add(_amount).sub(depositFee);\n            }else{\n                user.amount = user.amount.add(_amount);\n            }\n        }\n        user.rewardDebt = user.amount.mul(pool.accRAPerShare).div(1e12);\n        emit Deposit(msg.sender, _pid, _amount);\n    }\n\n    // Withdraw LP tokens from MasterChef.\n    function withdraw(uint256 _pid, uint256 _amount) public {\n        PoolInfo storage pool = poolInfo[_pid];\n        UserInfo storage user = userInfo[_pid][msg.sender];\n        require(user.amount >= _amount, \"withdraw: not good\");\n        updatePool(_pid);\n        uint256 pending = user.amount.mul(pool.accRAPerShare).div(1e12).sub(user.rewardDebt);\n        if(pending > 0) {\n            safeRATransfer(msg.sender, pending);\n        }\n        if(_amount > 0) {\n            user.amount = user.amount.sub(_amount);\n            pool.lpToken.safeTransfer(address(msg.sender), _amount);\n        }\n        user.rewardDebt = user.amount.mul(pool.accRAPerShare).div(1e12);\n        emit Withdraw(msg.sender, _pid, _amount);\n    }\n\n    // Withdraw without caring about rewards. EMERGENCY ONLY.\n    function emergencyWithdraw(uint256 _pid) public {\n        PoolInfo storage pool = poolInfo[_pid];\n        UserInfo storage user = userInfo[_pid][msg.sender];\n        uint256 amount = user.amount;\n        user.amount = 0;\n        user.rewardDebt = 0;\n        pool.lpToken.safeTransfer(address(msg.sender), amount);\n        emit EmergencyWithdraw(msg.sender, _pid, amount);\n    }\n\n    // Safe ra transfer function, just in case if rounding error causes pool to not have enough RAs.\n    function safeRATransfer(address _to, uint256 _amount) internal {\n        uint256 raBal = ra.balanceOf(address(this));\n        if (_amount > raBal) {\n            ra.transfer(_to, raBal);\n        } else {\n            ra.transfer(_to, _amount);\n        }\n    }\n\n    // Update dev address by the previous dev.\n    function dev(address _devaddr) public {\n        require(msg.sender == devaddr, \"dev: wut?\");\n        devaddr = _devaddr;\n    }\n\n    function setFeeAddress(address _feeAddress) public{\n        require(msg.sender == feeAddress, \"setFeeAddress: FORBIDDEN\");\n        feeAddress = _feeAddress;\n    }\n\n    //Pancake has to add hidden dummy pools inorder to alter the emission, here we make it simple and transparent to all.\n    function updateEmissionRate(uint256 _raPerBlock) public onlyOwner {\n        massUpdatePools();\n        raPerBlock = _raPerBlock;\n    }\n}\n",
  "sourcePath": "/home/dev/Desktop/Projects/Pharaoh/Contracts/contracts/MasterChef.sol",
  "compiler": {
    "name": "solc",
    "version": "0.6.12+commit.27d51765.Emscripten.clang"
  },
  "schemaVersion": "3.4.1",
  "updatedAt": "2021-05-31T15:25:40.265Z",
  "networkType": "ethereum",
  "devdoc": {
    "kind": "dev",
    "methods": {
      "owner()": {
        "details": "Returns the address of the current owner."
      },
      "renounceOwnership()": {
        "details": "Leaves the contract without owner. It will not be possible to call `onlyOwner` functions anymore. Can only be called by the current owner. NOTE: Renouncing ownership will leave the contract without an owner, thereby removing any functionality that is only available to the owner."
      },
      "transferOwnership(address)": {
        "details": "Transfers ownership of the contract to a new account (`newOwner`). Can only be called by the current owner."
      }
    },
    "version": 1
  },
  "userdoc": {
    "kind": "user",
    "methods": {},
    "version": 1
  }
}